:020000040000FA
:04000000B6EF08F05F
:08000800056ED8CF06F0E0CF31
:1000100007F00001E9CF0DF0EACF08F0E1CF09F0D9
:10002000E2CF0AF0D9CF0BF0DACF0CF0F3CF14F017
:10003000F4CF15F0FACF16F000C00FF001C010F0A9
:1000400002C011F003C012F004C013F0F2AA2CEFAA
:1000500000F0F2B442EF06F09DA232EF00F09EB243
:100060004CEF06F0A0AA38EF00F0A1BA0DEF06F0B1
:100070000FC000F010C001F011C002F012C003F078
:1000800013C004F00E8E0DC0E9FF08C0EAFF09C0DE
:10009000E1FF0AC0E2FF0BC0D9FF0CC0DAFF14C0B9
:1000A000F3FF15C0F4FF16C0FAFF055007C0E0FFCC
:1000B00006C0D8FF1000F76AC60FF66E000EF722D2
:1000C0000900F550120004030000000000000000C9
:1000D0000000000000000DAE03D0F2CF0EF0F29E43
:1000E000F76AF80FF66E000EF7220900F5500DAE14
:1000F00002D00EBEF28E1200400040000000000050
:1001000000000000000000000000000000000000EF
:100110000000000000000000F76A280FF66E010ED4
:10012000F7220900F55012000600FF0901A101198C
:100130000129081580257F7508952081021901295C
:1001400008750895209102C0F76A580FF66E010EE7
:10015000F7220900F55012000000F76A6A0FF66EE8
:10016000010EF7220900F55012002000F76A7C0FFB
:10017000F66E010EF7220900F5501200090229005F
:10018000010100809609040000020300000009211B
:10019000000100012220000705810340000A070535
:1001A000010340000A00F76AB60FF66E010EF7224F
:1001B0000900F55012000100F76AC80FF66E010E33
:1001C000F7220900F5501200120110010000004052
:1001D000D8040B00000101020001F76AEA0FF66E75
:1001E000010EF7220900F550120004030904080368
:1001F0005000690063002003530065007200760020
:100200006F00200043006F006E00740072006F00EA
:100210006C002000B1006D926994689418EF06F0AC
:100220006A6A689221EF06F0D26BD2530AE1036A40
:10023000D251270FE96E000E0320EA6EEF6AD22B2F
:10024000F4D71A6A010E1B6E196A000C010EDB6FDF
:10025000DB510F080EE3700EDB25016E0F0E036EEF
:10026000D8B0032A01C0E9FF03C0EAFFEF6ADB2B25
:10027000EFD71E6A1D6A000C400E0401016F050EC7
:10028000036F026B880E006F046B050E076F400E44
:10029000066F0001000C6A6A686A9F0E6B6E390E69
:1002A000696E6E6AC1DFD2DF160E706E68A602D06C
:1002B0006896FCD76D98E0DF030E1F6E27EF06F0FF
:1002C000698468986D822DEF06F0689C33EF06F024
:1002D00070A002D0D1DF7090689A39EF06F0D6C0D6
:1002E00020F0000CFF0E206E000CD46B26523EE076
:1002F000D4513F083BE31C50FC0F2BE2040FC0EF2E
:1003000001F0036A2550F2CFD6F0F29E2FDFD6BF60
:10031000F28ED56F1ED0036A2550F2CFD6F0F29E32
:10032000FBDED6BFF28ED56F14D0036A2550F2CF14
:10033000D6F0F29E52DFD6BFF28ED56F0AD0036A96
:100340002550F2CFD6F0F29E37DFD6BFF28ED56FB2
:1003500000D0252A2606D451D42B036A400FE96E1B
:10036000050E0320EA6ED5C0EFFFC0D7265204E188
:10037000D451400801E0196AD4C0D6F0B0DF000CB7
:10038000E824F76AF7369B0FF66E030EF7220A0091
:10039000F550FA6E0800F550F96E020316032A03B1
:1003A0003E03256A1C6A05010351010A000109E0A8
:1003B000030A0CE0010A0DE0220A22E0030A32E0FF
:1003C00058D0120E266E030E1C6E55D0290E266EC6
:1003D00052D0020E1C6E036A05010251210FE96E14
:1003E000000E0320EA6EEFCF25F0036A2550F2CF0E
:1003F000D4F0F29E0001F1DED4BFF28E266E3BD027
:10040000120E256E253C01D00BD0036A2550F2CF89
:10041000D4F0F29EABDED4BFF28E266E2CD002D08A
:1004200061DF35D0D89005010435036AF2CFD4F0EE
:10043000F29E000189DE0900F5CF03F0D4BFF28EF1
:10044000256E253C01D013D0010E1C6ED8900501FD
:100450000435036AF2CFD4F0F29E00017EDE09007B
:10046000F5CF03F0D4BFF28E266E05D002D03ADF6E
:100470000ED038DF0CD00501075305E12650065D8C
:1004800002E206C526F0010E196E00012EDF000CF7
:10049000D35304E1040E1F6ED9DEC1D0050E1F6ECA
:1004A000D66F800ED56F010ED46FD4510F08D8A02F
:1004B000B6D0D76B036AD451F2CFDBF0F29EFBDDEE
:1004C000DBBFF28E000A51E0040ED76FD890D4350E
:1004D000036AF2CFDBF0F29EFEDD0900F5CF03F0F8
:1004E000DBBFF28ED86F03C0D9F0D451080DF350A2
:1004F000010F016E040E036ED8B0032A01C0E9FF9C
:1005000003C0EAFFD8C0EFFFD451080DF350020F2B
:10051000016E040E036ED8B0032A01C0E9FF03C0C8
:10052000EAFFD6C0ECFFED52D5C0EFFFD890D4352E
:10053000036AF2CFDBF0F29ECEDD0900F5CF03F0C7
:10054000DBBFF28ED5270350D623880EDA6FD9B1E0
:10055000DA81D9B3DA83D451080DF3CF01F0040E58
:1005600001C0E9FFEA6EDAC0EFFF036AD451F2CFAF
:10057000DBF0F29EA0DDDBBFF28E000A31E0D78314
:10058000D451080DF350060F016E040E036ED8B05F
:10059000032A01C0E9FF03C0EAFFD6C0ECFFED5219
:1005A000D5C0EFFFD890D435036AF2CFDBF0F29ECE
:1005B00092DD0900F5CF03F0DBBFF28ED5270350A3
:1005C000D623D451080DF350040F016E040E036EB0
:1005D000D8B0032A01C0E9FF03C0EAFF400EEF6E66
:1005E000D751060802E10E0ED76F036AD451F2CF3D
:1005F000DBF0F29E60DDDBBFF28E020801E0D789FE
:10060000700ED425016E0F0E036ED8B0032A01C000
:10061000E9FF03C0EAFFD7C0EFFFD42B46D75BEF5B
:1006200003F00501015100010DE0010A14E0020A86
:100630001EE0060A27E0030A2CE00E0A2CE0010A5D
:1006400030E03DD01BC040F50501416B020E0001BA
:10065000D66F45DE36D00501022D06D0010E1B16E1
:100660000001D66B3CDE02D000013CDE2AD0050141
:10067000022D05D01B820001D66B31DE02D00001B5
:1006800031DE1FD0020E196E02C524F0D66B27DEB4
:1006900018D087DE16D01AC040F5010ED66F1FDEC7
:1006A00010D005010251010808E302C51AF002C585
:1006B000D3F00001EDD6D66B12DE000102D012DEBF
:1006C00000D091EF04F01AC0D3F0050101510001F0
:1006D00007E00A0A0DE0010A2DE00D0A3DE03ED0D8
:1006E0000501406B416B020E0001D66FF8DD38D07A
:1006F000D3531EE0010ED35D036AF2CFD5F0F29E14
:1007000052DDD5BFF28E016E0501045DD8A002D086
:1007100000010ED0036A0451270FE96E000E03207A
:10072000EA6EEFCF40F5010E0001D66FD8DD01D0A3
:10073000D9DD16D0D3530EE0036A05010451270F0B
:10074000E96E000E0320EA6E02C5EFFF0001D66BD2
:10075000C6DD01D0C7DD04D024DE02D0C3DD00D069
:1007600091EF04F0D491D3BFD481D39FD4A110D002
:10077000036AD351F2CFD5F0F29E9DDCD5BFF28E45
:10078000000A02E1000E01D0010E016E10D00FD060
:10079000036AD351F2CFD5F0F29E8DDCD5BFF28E35
:1007A000000A02E1000E01D0010E016E00D049EFF7
:1007B00004F0D491D3BFD481D39FD4A110D0D3510E
:1007C000080DF350040F016E040E036ED8B0032A17
:1007D00001C0E9FF03C0EAFF880EEF6E09D0D351D4
:1007E000080DF3CF01F0040E01C0E9FFEA6EEF6AD5
:1007F00058EF04F0D491D3BFD481D39FD4A110D0AB
:10080000D351080DF350040F016E040E036ED8B0DF
:10081000032A01C0E9FF03C0EAFF840EEF6E0AD08D
:10082000D351080DF3CF01F0040E01C0E9FFEA6EC9
:10083000840EEF6E5EEF04F0D491D3BFD481D39FCA
:10084000D4A110D0D351080DF350040F016E040E43
:10085000036ED8B0032A01C0E9FF03C0EAFFEFCF5F
:10086000D5F00AD0D351080DF3CF01F0040E01C02A
:10087000E9FFEA6EEFCFD5F0D5AF02D0D5B502D003
:10088000000E01D0010E016E68EF04F004C5D3F034
:1008900069D7015229E005010151010A000105E073
:1008A000020A09E0030A0DE01DD004C5D3F081D788
:1008B000D66B15DD19D004C5D3F09CD7D66B0FDDF0
:1008C00013D00501406B416B04C5D3F00001B4D7D0
:1008D000015204E0010E0501406F0001020ED66FC7
:1008E000FEDC02D0FFDC00D091EF04F005010151E5
:1008F00000D00001F7DC00D091EF04F0196A050187
:1009000000517F0B000107E0010A06E0030A05E041
:10091000230A04E004D085D6D6D6B8D7E7D7E2DCE0
:1009200000D0B8EF05F0D351080DF3CF01F0040E5D
:1009300001C0E9FFEA6EEFCFD5F0D451020806E11D
:10094000D5AD02D0D46B02D0010ED46FD4510308C0
:1009500012E1840ED56FD351080DF350040F016ED0
:10096000040E036ED8B0032A01C0E9FF03C0EAFFFA
:10097000840EEF6E09D0D42D03D0C80ED56F04D0ED
:10098000D45302E1880ED56F036A010E026ED35173
:10099000006E05E0D89002360336002EFBD70250D9
:1009A000FF0A006EFF0E031A00501D1603501E169C
:1009B000D890D335036AF2CFD8F0F29E6BEC00F0FA
:1009C0000900F5CF03F0D8BFF28ED66F03C0D7F081
:1009D000D351080DF350010F016E040E036ED8B011
:1009E000032A01C0E9FF03C0EAFFD6C0EFFFD7B179
:1009F000D581D7B3D583D351080DF3CF01F0040EC1
:100A000001C0E9FFEA6ED5C0EFFF000CD351080D1D
:100A1000F350040F016E040E036ED8B0032A01C018
:100A2000E9FF03C0EAFFEFCFD7F0D7BF5BD0D351C8
:100A3000080DF350050F016E040E036ED8B0032AA3
:100A400001C0E9FF03C0EAFFD4C0EFFFD65102089E
:100A500016E1D351080DF350040F016E040E036E1E
:100A6000D8B0032A01C0E9FF03C0EAFFEFCFD7F0F7
:100A7000D7AD02D0D66B02D0010ED66F13D0D651AF
:100A8000040810E1D351080DF3CF01F0040E01C0AA
:100A9000E9FFEA6EEFCFD7F0D7AD03D0010ED66FE6
:100AA00001D0D66BD62D03D0C80ED76F04D0D65345
:100AB00002E1880ED76FD5B1D781D5B3D783D35193
:100AC000080DF350040F016E040E036ED8B0032A14
:100AD00001C0E9FF03C0EAFFD7C0EFFF010E016EBE
:100AE00003D000D0000E016E000CD35303E13CECA8
:100AF00001F00FD0036A010E026ED351006E05E0C3
:100B0000D89002360336002EFBD702501D12035038
:100B10001E12000CD4C06EFFD45303E0040E1F6EEF
:100B200002D0020E1F6E9AEF05F01A6A196A24C0ED
:100B3000D4F0F0D7A7EF05F0D35309E1192C03D077
:100B400075EC01F004D01950020801E1EED7000C59
:100B50006C30D26FD233D2331F0ED2176C523BE1BE
:100B6000040100513C0B34081BE1046B0001C6D6A4
:100B7000203C05D0D36B030ED46FD5DE0ED0D36BE3
:100B8000020ED46FD0DE2050FE0807E0D36BD56B89
:100B900020C0D4F0040ED66F39DF6D9819D004014F
:100BA00000513C0B040815E10001D36B9EDFD36BB1
:100BB000020ED46FB8DE2050FE080AE0203C01D0BF
:100BC00007D0D36BD56B20C0D4F0010ED66F1EDFDB
:100BD000040120D000016C50040812E1FF0E206EC9
:100BE000D36BAADF203C01D008D0D36BD56B20C0DB
:100BF000D4F0020ED66F0ADF02D03CEC01F009D02F
:100C00006CB404D0D2C0D3F070DF03D0D2C0D3F024
:100C100093DF040100013EEF06F01F5201E12FD0E7
:100C200068522DE068A404D069A402D00BEF01F053
:100C30006DA201D024D068A204D069A202D010EF26
:100C400001F068A004D069A002D04BEF01F068A8C1
:100C500004D069A802D060EF01F068AC04D069ACA0
:100C600002D065EF01F068AA04D069AA02D068EF4B
:100C700001F068A604D069A602D06AD76896A19A46
:100C800038EF00F0BC5303E1BE81960EBC6FBC0789
:100C9000F294F29438EF00F0BEA109D1BF51F30FE6
:100CA000D8B004D10D0F5BEF07F0A8530FE0010E91
:100CB000BD5D016E0134006E00360036F80E001680
:100CC00000500609CA6EA8C0CBFF8A8E010EBF6F06
:100CD000EDD0A9530FE0010EBD5D016E0134006E31
:100CE00000360036F80E001600500609CA6EA9C07C
:100CF000CBFF8A8C8A9E020EBF6FD8D0AA530FE01A
:100D0000010EBD5D016E0134006E00360036F80E36
:100D1000001600500609CA6EAAC0CBFF8A8A8A9CB8
:100D2000030EBF6FC3D0AB530FE0010EBD5D016E6C
:100D30000134006E00360036F80E00160050060929
:100D4000CA6EABC0CBFF8A888A9A040EBF6FAED042
:100D5000AC530FE0010EBD5D016E0134006E003634
:100D60000036F80E001600500609CA6EACC0CBFF64
:100D70008A868A98050EBF6F99D0AD530FE0010E99
:100D8000BD5D016E0134006E00360036F80E0016AF
:100D900000500609CA6EADC0CBFF8A848A96060E43
:100DA000BF6F84D0AE530FE0010EBD5D016E013404
:100DB000006E00360036F80E001600500609CA6EA6
:100DC000AEC0CBFF8A828A94070EBF6F6FD0AF533D
:100DD0000FE0010EBD5D016E0134006E003600367D
:100DE000F80E001600500609CA6EAFC0CBFF8A800D
:100DF0008A92080EBF6F5AD0B0530FE0010EBD5D4E
:100E0000016E0134006E00360036F80E00160050F8
:100E10000609CA6EB0C0CBFF8C8E8A90090EBF6FD8
:100E200045D0B1530FE0010EBD5D016E0134006E7F
:100E300000360036F80E001600500609CA6EB1C022
:100E4000CBFF8C8C8C9E0A0EBF6F30D0B2530FE05C
:100E5000010EBD5D016E0134006E00360036F80EE5
:100E6000001600500609CA6EB2C0CBFF8C8A8C9C5B
:100E70000B0EBF6F1BD0B3530FE0010EBD5D016EB3
:100E80000134006E00360036F80E001600500609D8
:100E9000CA6EB3C0CBFF8C888C9A0C0EBF6F06D085
:100EA0008C98BF6BBE91FA0EBC6F00D001D09E92A1
:100EB0009E9238EF00F0E824F76AF736D10FF66E0D
:100EC0000E0EF7220A00F550FA6E0800F550F96E82
:100ED000AA0CD20CFC0C260D500D7A0DA40DCE0DD3
:100EE000F80D220E4C0E760EA00EBE0EC012F2EFC2
:100EF00008F06D6A696A080E6F6E94503009946E3E
:100F00001F6A186AF2BE188EF29E14EC01F018BE29
:100F1000F28E1E6A1D6AB0EF07F0186AF2BE188ED4
:100F2000F29E14EC01F018BEF28E6D6A140E6F6E14
:100F3000696A6D86010E1F6EA1EF07F06DB601D0D4
:100F4000ECD71F2C0BD06DBA09D0686A696AA08AE9
:100F5000C00EF212110E696E020E1F6E000CC9D780
:100F6000EDDF1F500208FCE101EF09F01A5202E127
:100F70000400FCD7BFEF07F08B808B92F7D78B82F2
:100F80008B9003EF09F0EA6AC00EE96EEF500EE0B5
:100F90000F0E016E006A002EFED7012EFBD78F0EBA
:100FA000006E002EFED70000EF2EF2D7000CC051CD
:100FB000080DF350040F016E040E036ED8B0032A1F
:100FC00001C0E9FF03C0EAFFEFCFC8F0C8BF45D0BA
:100FD000C051080DF350060F016E040E036ED8B019
:100FE000032A01C0E9FF03C0EAFFECCF03F0ED5292
:100FF000EFCFC9F003C0CAF0C76BC66BC751C45D61
:101000001AE303E1C351C65D16E2C1C0E9FFC2C0E5
:10101000EAFFEFCFCDF0CAC0EAFFC9C0E9FFCDC0FB
:10102000EFFFC92BD8B4CA2BC12BD8B4C22BC62B07
:10103000D8B4C72BE3D7186AF2BE188EF29EC0C090
:10104000D3F0C4C0D5F0C3C0D4F0C5C0D6F0DEDC48
:1010500018BEF28E015003D000D0000E016E53EF87
:1010600009F0C551080DF350020F016E040E036E16
:10107000D8B0032A01C0E9FF03C0EAFFECCF03F0B8
:10108000ED52EFCFCAF003C0CBF0C551080DF350BD
:10109000010F016E040E036ED8B0032A01C0E9FFF0
:1010A00003C0EAFFEF50036ACD6F03C0CEF0C55115
:1010B000080DF3CF01F0040E01C0E9FFEA6EEFCF97
:1010C000CCF0CCB1CE81CCB3CE83CE51C95D08E398
:1010D00003E1C851CD5D04E2CEC0C9F0CDC0C8F077
:1010E000CE6BCD6BCE51C95D1AE303E1C851CD5D26
:1010F00016E2CAC0E9FFCBC0EAFFEFCFD1F0C7C00C
:10110000EAFFC6C0E9FFD1C0EFFFC62BD8B4C72B9A
:10111000CA2BD8B4CB2BCD2BD8B4CE2BE3D7C8C099
:1011200001F0C9C002F0A0EF08F0C0C0C5F0C2C015
:10113000C7F0C1C0C6F0C4C0C9F0C3C0C8F091D7E1
:1011400002C0C4F001C0C3F0186AF2BE188EF29E4D
:10115000C0C0D3F0020ED46F93EC04F018BEF28E30
:10116000C3C001F0C4C002F05EEF09F0F86AD09E7F
:101170000D8EEA6AE96AC150C00B0F09C16E070EF5
:10118000B46E1F6A216A040E226E0C0E236E266A4C
:10119000960EA86FA96BAA6BAB6BAC6BAD6BAE6B0D
:1011A000AF6BB06BB16BB26BB36B010EBC6F070E64
:1011B000BD6FBF6B0F0E926E000E936E956E946EA8
:1011C0009690969296848A6A8C6A8B6A896A8D6AEE
:1011D000C090C082C094C08EC280C150C00B0B09A9
:1011E000C16E83D6C80ED56ED76A380ED66E000E85
:1011F0000409CA6E010ECB6EC00EF212F28A9D82F5
:10120000AED69CDEB9D61A52D8B490D0000E016E7C
:10121000C250C30B0110C26EC282C2B2FED7C3CF8E
:10122000B4F0C4CFB5F0B4C068F0B5C069F0050E35
:10123000C06FA9DE040E016EC250C30B0110C26E56
:10124000C282C2B2FED7C3CFB6F0C4CFB7F0B6C029
:101250006AF0B7C06BF0050EC06F95DE080E016E28
:10126000C250C30B0110C26EC282C2B2FED7C3CF3E
:10127000B8F0C4CFB9F0B8C06CF0B9C06DF0050ECD
:10128000C06F81DEBAC06EF06F6BBEB16F2B010E06
:10129000706FC06FC26B680EC16FC46B200EC36FDE
:1012A000020EC56F84D61DA241D0010EC06FC26B65
:1012B000280EC16FC46B200EC36F37D7282C00D007
:1012C00029C0A8F02AC0A9F02BC0AAF02CC0ABF00E
:1012D0002DC0ACF02EC0ADF02FC0AEF030C0AFF0DE
:1012E00031C0B0F032C0B1F033C0B2F034C0B3F0AE
:1012F0008C96352C01D08C868C94362C01D08C8425
:101300008C92372C01D08C828C90382C01D08C8020
:101310008B90392C01D08B808B923A2C01D08B8210
:101320008B943B2C01D08B843C2C00D06CD70300D9
:020000040030CA
:0E000000240E3E1E000381000FC00FE00F40D3
:00000001FF
;PIC18F4550
